:100000000C9446000C945D000C945D000C945D0013
:100010000C945D000C945D000C945D000C945D00EC
:100020000C945D000C945D000C945D000C945D00DC
:100030000C945D000C945D000C945D000C945D00CC
:100040000C945D000C945D000C945D000C945D00BC
:100050000C945D000C945D000C945D000C945D00AC
:100060000C945D000C945D000C945D000C945D009C
:100070000C945D000C945D000C945D000C945D008C
:100080000C945D000C945D000C945D0011241FBE67
:10009000CFEFD0E4DEBFCDBF11E0A0E0B1E0E2E6FB
:1000A000F2E000E00BBF02C007900D92AE30B10746
:1000B000D9F70E9488000C942F010C940000CF9374
:1000C000DF9300D01F92CDB7DEB789837B836A832D
:1000D00089818A3031F48A819B81BC018DE00E9444
:1000E0005F0080EC90E0FC018081882F90E08072BE
:1000F00099270097B1F386EC90E02981FC012083D9
:1001000080E090E00F900F900F90DF91CF910895D5
:10011000CF93DF9300D000D01F92CDB7DEB781E23E
:1001200090E0FC01108282E290E02FEFFC0120833E
:1001300084E290E0FC01108285E290E02FEFFC0168
:10014000208387E290E0FC01108288E290E02FEFAC
:10015000FC0120838AE290E02FEFFC0120838BE2F8
:1001600090E0FC01108219821A821B821D821C827F
:1001700080E290E0FC018081898383E290E0FC01D1
:1001800080818A8386E290E0FC0180818B83898173
:10019000282F30E08A81882F90E0280F391F8B812B
:1001A000882F90E0820F931F9D838C838C819D818B
:1001B0008D38910550F08BE290E02BE230E0F901B0
:1001C00020812160FC01208309C08BE290E02BE2BA
:1001D00030E0F90120812E7FFC0120838981282FC6
:1001E00030E08B81882F90E0A901481B590BCA0190
:1001F0008135910574F48981282F30E08B81882F17
:1002000090E0F901E81BF90BCF01803BFFEF9F075E
:1002100054F48BE290E02BE230E0F901208122607F
:10022000FC01208309C08BE290E02BE230E0F90171
:1002300020812D7FFC0120838BE290E02BE230E0D7
:10024000F9012081422F43702C813D8136952795FD
:10025000369527952C7F242BFC01208389CFF89499
:02026000FFCFCE
:0E02620000000002000000005F00000000002D
:00000001FF
