:100000000C9446000C945D000C945D000C945D0013
:100010000C945D000C945D000C945D000C945D00EC
:100020000C945D000C945D000C945D000C945D00DC
:100030000C945D000C945D000C945D000C945D00CC
:100040000C945D000C945D000C945D000C945D00BC
:100050000C945D000C945D000C945D000C945D00AC
:100060000C945D000C945D000C945D000C945D009C
:100070000C945D000C945D000C945D000C945D008C
:100080000C945D000C945D000C945D0011241FBE67
:10009000CFEFD0E4DEBFCDBF11E0A0E0B1E0E4EFF0
:1000A000F1E000E00BBF02C007900D92AE30B10747
:1000B000D9F70E9488000C94F8000C940000CF93AC
:1000C000DF9300D01F92CDB7DEB789837B836A832D
:1000D00089818A3031F48A819B81BC018DE00E9444
:1000E0005F0080EC90E0FC018081882F90E08072BE
:1000F00099270097B1F386EC90E02981FC012083D9
:1001000080E090E00F900F900F90DF91CF910895D5
:10011000CF93DF931F92CDB7DEB781E290E0FC0171
:10012000108282E290E02FEFFC01208387E290E0D2
:100130002FEFFC01208388E290E0FC0110821982FD
:10014000198280E290E0FC018081882F90E0887025
:100150009927009719F489818F5F898380E290E065
:10016000FC018081882F90E084709927009719F412
:1001700089818F5F898380E290E0FC018081882FF4
:1001800090E082709927009719F489818F5F8983A5
:1001900080E290E0FC018081882F90E081709927B7
:1001A000009719F489818F5F898388E290E028E2C3
:1001B00030E0F9012081322F307F2981232BFC018F
:1001C00020838981882351F488E290E028E230E09E
:1001D000F90120812068FC01208309C088E290E0B9
:1001E00028E230E0F90120812F77FC012083A8CF9D
:0401F000F894FFCFB1
:0E01F40000000002000000005F00000000009C
:00000001FF
